{
  "address": "0x5A431D144054ec957F93CD81E3279B3472DEE95C",
  "abi": [
    {
      "anonymous": false,
      "inputs": [
        {
          "indexed": false,
          "internalType": "address",
          "name": "previousAdmin",
          "type": "address"
        },
        {
          "indexed": false,
          "internalType": "address",
          "name": "newAdmin",
          "type": "address"
        }
      ],
      "name": "AdminChanged",
      "type": "event"
    },
    {
      "anonymous": false,
      "inputs": [
        {
          "indexed": true,
          "internalType": "address",
          "name": "beacon",
          "type": "address"
        }
      ],
      "name": "BeaconUpgraded",
      "type": "event"
    },
    {
      "anonymous": false,
      "inputs": [
        {
          "indexed": false,
          "internalType": "uint8",
          "name": "version",
          "type": "uint8"
        }
      ],
      "name": "Initialized",
      "type": "event"
    },
    {
      "anonymous": false,
      "inputs": [
        {
          "indexed": false,
          "internalType": "address",
          "name": "sender",
          "type": "address"
        },
        {
          "indexed": false,
          "internalType": "uint256",
          "name": "pairIndex",
          "type": "uint256"
        },
        {
          "indexed": false,
          "internalType": "int256",
          "name": "baseFundingRate",
          "type": "int256"
        }
      ],
      "name": "UpdateBaseFundingRate",
      "type": "event"
    },
    {
      "anonymous": false,
      "inputs": [
        {
          "indexed": false,
          "internalType": "address",
          "name": "sender",
          "type": "address"
        },
        {
          "indexed": false,
          "internalType": "uint256",
          "name": "pairIndex",
          "type": "uint256"
        },
        {
          "indexed": false,
          "internalType": "uint256",
          "name": "maxBaseFundingRate",
          "type": "uint256"
        }
      ],
      "name": "UpdateBaseFundingRateMaximum",
      "type": "event"
    },
    {
      "anonymous": false,
      "inputs": [
        {
          "indexed": false,
          "internalType": "address",
          "name": "sender",
          "type": "address"
        },
        {
          "indexed": false,
          "internalType": "address",
          "name": "oldAddress",
          "type": "address"
        },
        {
          "indexed": false,
          "internalType": "address",
          "name": "newAddress",
          "type": "address"
        }
      ],
      "name": "UpdateGovAddress",
      "type": "event"
    },
    {
      "anonymous": false,
      "inputs": [
        {
          "indexed": true,
          "internalType": "address",
          "name": "implementation",
          "type": "address"
        }
      ],
      "name": "Upgraded",
      "type": "event"
    },
    {
      "inputs": [],
      "name": "ADDRESS_PROVIDER",
      "outputs": [
        {
          "internalType": "contract IAddressesProvider",
          "name": "",
          "type": "address"
        }
      ],
      "stateMutability": "view",
      "type": "function"
    },
    {
      "inputs": [
        {
          "internalType": "uint256",
          "name": "",
          "type": "uint256"
        }
      ],
      "name": "baseFundingRate",
      "outputs": [
        {
          "internalType": "int256",
          "name": "",
          "type": "int256"
        }
      ],
      "stateMutability": "view",
      "type": "function"
    },
    {
      "inputs": [
        {
          "internalType": "uint256",
          "name": "",
          "type": "uint256"
        }
      ],
      "name": "baseFundingRateMaximum",
      "outputs": [
        {
          "internalType": "uint256",
          "name": "",
          "type": "uint256"
        }
      ],
      "stateMutability": "view",
      "type": "function"
    },
    {
      "inputs": [],
      "name": "gov",
      "outputs": [
        {
          "internalType": "address",
          "name": "",
          "type": "address"
        }
      ],
      "stateMutability": "view",
      "type": "function"
    },
    {
      "inputs": [
        {
          "internalType": "contract IAddressesProvider",
          "name": "addressProvider",
          "type": "address"
        },
        {
          "internalType": "address",
          "name": "_gov",
          "type": "address"
        }
      ],
      "name": "initialize",
      "outputs": [],
      "stateMutability": "nonpayable",
      "type": "function"
    },
    {
      "inputs": [],
      "name": "proxiableUUID",
      "outputs": [
        {
          "internalType": "bytes32",
          "name": "",
          "type": "bytes32"
        }
      ],
      "stateMutability": "view",
      "type": "function"
    },
    {
      "inputs": [
        {
          "internalType": "uint256[]",
          "name": "_pairIndexes",
          "type": "uint256[]"
        },
        {
          "internalType": "uint256[]",
          "name": "_baseFundingRateMaximums",
          "type": "uint256[]"
        }
      ],
      "name": "setBaseFundingRateMaximum",
      "outputs": [],
      "stateMutability": "nonpayable",
      "type": "function"
    },
    {
      "inputs": [
        {
          "internalType": "address",
          "name": "_gov",
          "type": "address"
        }
      ],
      "name": "setGov",
      "outputs": [],
      "stateMutability": "nonpayable",
      "type": "function"
    },
    {
      "inputs": [
        {
          "internalType": "uint256[]",
          "name": "_pairIndexes",
          "type": "uint256[]"
        },
        {
          "internalType": "int256[]",
          "name": "_baseFundingRates",
          "type": "int256[]"
        }
      ],
      "name": "updateBaseFundingRate",
      "outputs": [],
      "stateMutability": "nonpayable",
      "type": "function"
    },
    {
      "inputs": [
        {
          "internalType": "address",
          "name": "newImplementation",
          "type": "address"
        }
      ],
      "name": "upgradeTo",
      "outputs": [],
      "stateMutability": "nonpayable",
      "type": "function"
    },
    {
      "inputs": [
        {
          "internalType": "address",
          "name": "newImplementation",
          "type": "address"
        },
        {
          "internalType": "bytes",
          "name": "data",
          "type": "bytes"
        }
      ],
      "name": "upgradeToAndCall",
      "outputs": [],
      "stateMutability": "payable",
      "type": "function"
    }
  ],
  "transactionHash": "0x96eb28a462d43cab32548b7a440f76bc84b3311035aa4d2be3256be8c83aaf03",
  "args": [],
  "numDeployments": 1,
  "solcInputHash": "bdbbc0c9292c0320fb39806a94124a6f",
  "bytecode": "0x60a08060405234610031573060805261131d908161003782396080518181816103f00152818161051a0152610ba10152f35b600080fdfe6080604081815260048036101561001557600080fd5b600092833560e01c90816312d43a5114610e6d575080631848effa14610e445780633659cfe614610b7a5780633f67e83214610981578063485cc9551461082e5780634f1ef286146104a057806352d1902d146103db5780635d1e87fe146103b45780636a28806314610218578063cfad57a2146100c65763e758eec61461009c57600080fd5b346100c25760203660031901126100c25760209282913581526067845220549051908152f35b8280fd5b50346100c25760209081600319360112610214576100e2610e92565b9160018060a01b03918082846065541687519283809262435da560e01b82525afa801561020a578492849289926101d8575b5060249088519485938492637be53ca160e01b84523390840152165afa9081156101ce57916101717f1856c42cbd5f0b1e182e1dfeba3842f63be2f47c5229e9de2657c25ced3d971a9692606096959489916101a1575b506111f0565b82606654941692836bffffffffffffffffffffffff60a01b8616176066558251943386521690840152820152a180f35b6101c19150833d85116101c7575b6101b98183610edf565b8101906111d8565b3861016b565b503d6101af565b85513d88823e3d90fd5b60249192506101fc90843d8611610203575b6101f48183610edf565b8101906111b9565b9190610114565b503d6101ea565b86513d89823e3d90fd5b8380fd5b50346100c257816003193601126100c25767ffffffffffffffff9181358381116103b0576102499036908401610f19565b926024359081116103b0576102619036908401610f19565b606554825162435da560e01b81526020949293926001600160a01b0392869083908390829087165afa9182156103a657908692918992610384575b5060249085519485938492637be53ca160e01b84523390840152165afa90811561037a57906102d191879161036357506111f0565b6102de845183511461122c565b845b845181101561035f57806102f761035a928561129d565b51610302828861129d565b51885260678652838820557f5f659347a4fb2edd65c46c158f0f2c7975ddee82849a61082a6b9054c3c3ad2e606061033a838961129d565b51610345848861129d565b518651913383528983015286820152a1611278565b6102e0565b8580f35b6101c19150853d87116101c7576101b98183610edf565b82513d88823e3d90fd5b602491925061039f90843d8611610203576101f48183610edf565b919061029c565b84513d8a823e3d90fd5b8480fd5b50346100c25760203660031901126100c25760209282913581526068845220549051908152f35b50823461049d578060031936011261049d57507f00000000000000000000000000000000000000000000000000000000000000006001600160a01b0316300361043557602082516000805160206112c88339815191528152f35b6020608492519162461bcd60e51b8352820152603860248201527f555550535570677261646561626c653a206d757374206e6f742062652063616c60448201527f6c6564207468726f7567682064656c656761746563616c6c00000000000000006064820152fd5b80fd5b5090806003193601126100c2576104b5610e92565b9060249081359067ffffffffffffffff821161082a573660238301121561082a57818501356104e381610f77565b6104ef83519182610edf565b8181528760209485830193368882840101116100c25780888893018637830101526001600160a01b037f000000000000000000000000000000000000000000000000000000000000000081169061054830831415610f93565b6105656000805160206112c8833981519152928284541614610ff4565b888682606554168751928380926334cc866d60e21b82525afa908115610820579082918c91610803575b501633036107cb577f4910fdfa16fed3260ed0e7147f7cc6da11a60208b5b9406d12a635614ffd91435460ff16156105d557505050505050506105d29150611055565b80f35b87929394959697169085516352d1902d60e01b815287818b81865afa8b9181610798575b5061065757865162461bcd60e51b8152808b01899052602e818b01527f45524331393637557067726164653a206e657720696d706c656d656e7461746960448201526d6f6e206973206e6f74205555505360901b6064820152608490fd5b98929498979193970361074457505061066f82611055565b7fbc7cd75a20ee27fd9adebab32041f755214dbc6bffa90cc0225b39da2e5c2d3b8780a28584511580159061073c575b6106ad575b50505050505080f35b80610726968451966106be88610ead565b602788527f416464726573733a206c6f772d6c6576656c2064656c65676174652063616c6c87890152660819985a5b195960ca1b868901525190845af4913d15610732573d61071861070f82610f77565b92519283610edf565b81528681943d92013e6110e5565b503880808080856106a4565b50606092506110e5565b50600161069f565b845162461bcd60e51b81529182018690526029908201527f45524331393637557067726164653a20756e737570706f727465642070726f786044820152681a58589b195555525160ba1b6064820152608490fd5b9091508881813d83116107c4575b6107b08183610edf565b810103126107c0575190386105f9565b8b80fd5b503d6107a6565b845162461bcd60e51b8152808a0187905260138189015272556e617574686f72697a65642061636365737360681b6044820152606490fd5b61081a9150883d8a11610203576101f48183610edf565b3861058f565b86513d8d823e3d90fd5b8580fd5b50346100c257816003193601126100c2576001600160a01b038135818116908190036103b0576024359182168092036103b057845460ff8160081c161593848095610974575b801561095d575b15610903575060ff1981166001178655836108f2575b506bffffffffffffffffffffffff60a01b9081606554161760655560665416176066556108bc575080f35b60207f7f26b83ff96e1f2b6a682f133852f6798a09c465da95921460cefb38474024989161ff001984541684555160018152a180f35b61ffff191661010117855538610891565b608490602087519162461bcd60e51b8352820152602e60248201527f496e697469616c697a61626c653a20636f6e747261637420697320616c72656160448201526d191e481a5b9a5d1a585b1a5e995960921b6064820152fd5b50303b15801561087b5750600160ff83161461087b565b50600160ff831610610874565b50829034610b765782600319360112610b765767ffffffffffffffff8135818111610214576109b39036908401610f19565b602493843592831161049d573660238401121561049d5782840135936109d885610f01565b936109e588519586610edf565b858552602095878787019160051b830101913683116103b05788889101915b838310610b665750506066546001600160a01b031633039150610b3a905057610a30835185511461122c565b815b8351811015610b3657610a45818661129d565b51838112610b12575b610a58828661129d565b518452606787528884205410610ade5780610a76610ad9928761129d565b51610a81828761129d565b51855260688852898520557f7c0263bc5a37d535821818b637ece2ed02128ecb6140693313a6debee3c864206060610ab9838861129d565b51610ac4848a61129d565b518c51913383528b8301528c820152a1611278565b610a32565b875162461bcd60e51b8152808301879052600f818901526e65786365656473206d6178696d756d60881b6044820152606490fd5b600160ff1b8114610b24578303610a4e565b634e487b7160e01b8452601183528784fd5b8280f35b865162461bcd60e51b81529081018590526007818701526637b7363ca3b7bb60c91b6044820152606490fd5b8235815291810191889101610a04565b5080fd5b5090346100c25760208060031936011261021457610b96610e92565b916001600160a01b037f00000000000000000000000000000000000000000000000000000000000000008116610bce30821415610f93565b610beb6000805160206112c8833981519152918383541614610ff4565b858483606554168551928380926334cc866d60e21b82525afa9081156103a6579083918991610e27575b50163303610dee578251908482019282841067ffffffffffffffff851117610ddb578385528883527f4910fdfa16fed3260ed0e7147f7cc6da11a60208b5b9406d12a635614ffd91435460ff1615610c77575050505050506105d29150611055565b869293949596169085516352d1902d60e01b815287818a81865afa8a9181610da8575b50610cf957865162461bcd60e51b8152808a01899052602e60248201527f45524331393637557067726164653a206e657720696d706c656d656e7461746960448201526d6f6e206973206e6f74205555505360901b6064820152608490fd5b979192939695949703610d535750610d1082611055565b7fbc7cd75a20ee27fd9adebab32041f755214dbc6bffa90cc0225b39da2e5c2d3b8780a285845115801590610d4c576106ad5750505050505080f35b508061069f565b835162461bcd60e51b8152908101859052602960248201527f45524331393637557067726164653a20756e737570706f727465642070726f786044820152681a58589b195555525160ba1b6064820152608490fd5b9091508881813d8311610dd4575b610dc08183610edf565b81010312610dd057519038610c9a565b8a80fd5b503d610db6565b634e487b7160e01b895260418852602489fd5b825162461bcd60e51b81528087018590526013602482015272556e617574686f72697a65642061636365737360681b6044820152606490fd5b610e3e9150863d8811610203576101f48183610edf565b38610c15565b505034610b765781600319360112610b765760655490516001600160a01b039091168152602090f35b849034610b765781600319360112610b76576066546001600160a01b03168152602090f35b600435906001600160a01b0382168203610ea857565b600080fd5b6060810190811067ffffffffffffffff821117610ec957604052565b634e487b7160e01b600052604160045260246000fd5b90601f8019910116810190811067ffffffffffffffff821117610ec957604052565b67ffffffffffffffff8111610ec95760051b60200190565b81601f82011215610ea857803591610f3083610f01565b92610f3e6040519485610edf565b808452602092838086019260051b820101928311610ea8578301905b828210610f68575050505090565b81358152908301908301610f5a565b67ffffffffffffffff8111610ec957601f01601f191660200190565b15610f9a57565b60405162461bcd60e51b815260206004820152602c60248201527f46756e6374696f6e206d7573742062652063616c6c6564207468726f7567682060448201526b19195b1959d85d1958d85b1b60a21b6064820152608490fd5b15610ffb57565b60405162461bcd60e51b815260206004820152602c60248201527f46756e6374696f6e206d7573742062652063616c6c6564207468726f7567682060448201526b6163746976652070726f787960a01b6064820152608490fd5b803b1561108a576000805160206112c883398151915280546001600160a01b0319166001600160a01b03909216919091179055565b60405162461bcd60e51b815260206004820152602d60248201527f455243313936373a206e657720696d706c656d656e746174696f6e206973206e60448201526c1bdd08184818dbdb9d1c9858dd609a1b6064820152608490fd5b9192901561114757508151156110f9575090565b3b156111025790565b60405162461bcd60e51b815260206004820152601d60248201527f416464726573733a2063616c6c20746f206e6f6e2d636f6e74726163740000006044820152606490fd5b82519091501561115a5750805190602001fd5b6040519062461bcd60e51b82528160208060048301528251908160248401526000935b8285106111a0575050604492506000838284010152601f80199101168101030190fd5b848101820151868601604401529381019385935061117d565b90816020910312610ea857516001600160a01b0381168103610ea85790565b90816020910312610ea857518015158103610ea85790565b156111f757565b60405162461bcd60e51b815260206004820152600d60248201526c37b7363ca837b7b620b236b4b760991b6044820152606490fd5b1561123357565b60405162461bcd60e51b815260206004820152601a60248201527f696e636f6e73697374656e7420706172616d73206c656e6774680000000000006044820152606490fd5b60001981146112875760010190565b634e487b7160e01b600052601160045260246000fd5b80518210156112b15760209160051b010190565b634e487b7160e01b600052603260045260246000fdfe360894a13ba1a3210667c828492db98dca3e2076cc3735a920a3ca505d382bbca264697066735822122032ede908f4dfe178a8dd2515a123a41e2ad83ea927c21b03babdaae48b82b1ee64736f6c63430008130033",
  "devdoc": {
    "events": {
      "AdminChanged(address,address)": {
        "details": "Emitted when the admin account has changed."
      },
      "BeaconUpgraded(address)": {
        "details": "Emitted when the beacon is changed."
      },
      "Initialized(uint8)": {
        "details": "Triggered when the contract has been initialized or reinitialized."
      },
      "Upgraded(address)": {
        "details": "Emitted when the implementation is upgraded."
      }
    },
    "kind": "dev",
    "methods": {
      "proxiableUUID()": {
        "details": "Implementation of the ERC1822 {proxiableUUID} function. This returns the storage slot used by the implementation. It is used to validate the implementation's compatibility when performing an upgrade. IMPORTANT: A proxy pointing at a proxiable contract should not be considered proxiable itself, because this risks bricking a proxy that upgrades to it, by delegating to itself until out of gas. Thus it is critical that this function revert if invoked through a proxy. This is guaranteed by the `notDelegated` modifier."
      },
      "upgradeTo(address)": {
        "custom:oz-upgrades-unsafe-allow-reachable": "delegatecall",
        "details": "Upgrade the implementation of the proxy to `newImplementation`. Calls {_authorizeUpgrade}. Emits an {Upgraded} event."
      },
      "upgradeToAndCall(address,bytes)": {
        "custom:oz-upgrades-unsafe-allow-reachable": "delegatecall",
        "details": "Upgrade the implementation of the proxy to `newImplementation`, and subsequently execute the function call encoded in `data`. Calls {_authorizeUpgrade}. Emits an {Upgraded} event."
      }
    },
    "version": 1
  },
  "userdoc": {
    "kind": "user",
    "methods": {},
    "version": 1
  },
  "storageLayout": {
    "storage": [
      {
        "astId": 417,
        "contract": "contracts/core/ConfigurationProvider.sol:ConfigurationProvider",
        "label": "_initialized",
        "offset": 0,
        "slot": "0",
        "type": "t_uint8"
      },
      {
        "astId": 420,
        "contract": "contracts/core/ConfigurationProvider.sol:ConfigurationProvider",
        "label": "_initializing",
        "offset": 1,
        "slot": "0",
        "type": "t_bool"
      },
      {
        "astId": 399,
        "contract": "contracts/core/ConfigurationProvider.sol:ConfigurationProvider",
        "label": "__gap",
        "offset": 0,
        "slot": "1",
        "type": "t_array(t_uint256)50_storage"
      },
      {
        "astId": 714,
        "contract": "contracts/core/ConfigurationProvider.sol:ConfigurationProvider",
        "label": "__gap",
        "offset": 0,
        "slot": "51",
        "type": "t_array(t_uint256)50_storage"
      },
      {
        "astId": 29413,
        "contract": "contracts/core/ConfigurationProvider.sol:ConfigurationProvider",
        "label": "ADDRESS_PROVIDER",
        "offset": 0,
        "slot": "101",
        "type": "t_contract(IAddressesProvider)24648"
      },
      {
        "astId": 6793,
        "contract": "contracts/core/ConfigurationProvider.sol:ConfigurationProvider",
        "label": "gov",
        "offset": 0,
        "slot": "102",
        "type": "t_address"
      },
      {
        "astId": 6797,
        "contract": "contracts/core/ConfigurationProvider.sol:ConfigurationProvider",
        "label": "baseFundingRateMaximum",
        "offset": 0,
        "slot": "103",
        "type": "t_mapping(t_uint256,t_uint256)"
      },
      {
        "astId": 6802,
        "contract": "contracts/core/ConfigurationProvider.sol:ConfigurationProvider",
        "label": "baseFundingRate",
        "offset": 0,
        "slot": "104",
        "type": "t_mapping(t_uint256,t_int256)"
      }
    ],
    "types": {
      "t_address": {
        "encoding": "inplace",
        "label": "address",
        "numberOfBytes": "20"
      },
      "t_array(t_uint256)50_storage": {
        "base": "t_uint256",
        "encoding": "inplace",
        "label": "uint256[50]",
        "numberOfBytes": "1600"
      },
      "t_bool": {
        "encoding": "inplace",
        "label": "bool",
        "numberOfBytes": "1"
      },
      "t_contract(IAddressesProvider)24648": {
        "encoding": "inplace",
        "label": "contract IAddressesProvider",
        "numberOfBytes": "20"
      },
      "t_int256": {
        "encoding": "inplace",
        "label": "int256",
        "numberOfBytes": "32"
      },
      "t_mapping(t_uint256,t_int256)": {
        "encoding": "mapping",
        "key": "t_uint256",
        "label": "mapping(uint256 => int256)",
        "numberOfBytes": "32",
        "value": "t_int256"
      },
      "t_mapping(t_uint256,t_uint256)": {
        "encoding": "mapping",
        "key": "t_uint256",
        "label": "mapping(uint256 => uint256)",
        "numberOfBytes": "32",
        "value": "t_uint256"
      },
      "t_uint256": {
        "encoding": "inplace",
        "label": "uint256",
        "numberOfBytes": "32"
      },
      "t_uint8": {
        "encoding": "inplace",
        "label": "uint8",
        "numberOfBytes": "1"
      }
    }
  }
}